:100000000C9462000C948A000C948A000C948A0070
:100010000C948A000C948A000C948A000C948A0038
:100020000C948A000C948A000C948A000C948A0028
:100030000C948A000C948A000C948A000C948A0018
:100040000C946C040C948A000C948A000C948A0022
:100050000C948A000C948A000C948A000C948A00F8
:100060000C944D030C948A0000000000240027002B
:100070002A000000000023002600290000000000E4
:10008000250028002B0004040404040404040202D4
:100090000202020203030303030301020408102007
:1000A0004080010204081020010204081020000012
:1000B0000008000201000003040700000000000027
:1000C0000000B60411241FBECFEFD8E0DEBFCDBFC5
:1000D00011E0A0E0B1E0E4E2FDE002C005900D9285
:1000E000AE34B107D9F722E0AEE4B1E001C01D9211
:1000F000A932B207E1F710E0C2E6D0E004C02197D0
:10010000FE010E948A06C136D107C9F70E94D604B3
:100110000C9490060C94000085ED8093BC008091B7
:10012000BC0084FDFCCF1092EB0108952091C50125
:10013000260F3327331F21323105ECF42091EB01D8
:10014000FC0190E080E0243069F082E00895A09105
:10015000C5012191AC014D555E4FA40FB52FB11DC6
:100160002C930196861798F38091C501680F6093D0
:10017000C50180E0089581E00895089508950895E7
:10018000E091A00180919F01E81730F4F0E0E15880
:10019000FE4F808190E008958FEF9FEF089590913A
:1001A000A00180919F012FEF3FEF981748F4E92FAE
:1001B000F0E0E158FE4F208130E09F5F9093A00176
:1001C000C901089580919F019091A001891B990B0D
:1001D0000895CF92DF92EF92FF920F931F93CF93E8
:1001E000DF937C01CB018A0120917E01222389F0DB
:1001F000EB016B01C40ED51ECC15DD0569F06991CC
:10020000D701ED91FC910190F081E02DC701099596
:10021000F3CF642F0E949600C801DF91CF911F9108
:100220000F91FF90EF90DF90CF900895CF93DF93E1
:100230001F92CDB7DEB7698320917E012223F9F0AA
:100240002091A101203258F021E030E0FC013383FD
:10025000228390E080E00F90DF91CF91089580910C
:10026000A201E82FF0E0E25AFE4F998190838F5F60
:100270008093A2018093A10181E090E0ECCF61E046
:10028000CE0101960E949600F7CF833081F028F4CA
:10029000813099F08230A9F008958730A9F0883034
:1002A000C9F08430B1F4809180008F7D03C08091CB
:1002B00080008F7780938000089584B58F7784BD08
:1002C000089584B58F7DFBCF8091B0008F778093A8
:1002D000B00008958091B0008F7DF9CFCF93DF9368
:1002E000282F30E0F901E255FF4F8491F901E656DD
:1002F000FF4FD491F901EA57FF4FC491CC2389F005
:1003000081110E944501EC2FF0E0EE0FFF1FE45831
:10031000FF4FA591B4918FB7F894EC91DE2BDC934D
:100320008FBFDF91CF9108953FB7F89480915A0124
:1003300090915B01A0915C01B0915D0126B5A89BF5
:1003400005C02F3F19F00196A11DB11D3FBFBA2F67
:10035000A92F982F8827BC01CD01620F711D811D27
:10036000911D42E0660F771F881F991F4A95D1F7AC
:1003700008958F929F92AF92BF92CF92DF92EF92A9
:10038000FF924B015C010E9494016B017C010E9471
:1003900094016C197D098E099F09683E734081059F
:1003A0009105A8F321E0821A9108A108B10888EE0E
:1003B000C80E83E0D81EE11CF11C81149104A10435
:1003C000B10429F7FF90EF90DF90CF90BF90AF90EE
:1003D0009F908F900895AF92BF92CF92DF92EF924D
:1003E000FF920F931F93CF93DF936C017B018B01DF
:1003F000040F151FEB015E01AE18BF08C017D1072F
:1004000059F06991D601ED91FC910190F081E02DB8
:10041000C6010995892B79F7C501DF91CF911F910D
:100420000F91FF90EF90DF90CF90BF90AF90089525
:10043000CF93FC01C48121E020937E01C0934E0143
:100440001092A2011092A1018385682B81E192E0B4
:100450000E9416019091A101913208F03FC0809155
:10046000EB018111FCCF82E08093EB0181E080936E
:10047000ED018FEF8093EA0110920F0290930E022C
:10048000AEE5B1E0EEEEF1E080E098132FC01092FF
:10049000100280911002CC0FC82BC09310028091E3
:1004A000EC01813039F51092EC01809110028093BB
:1004B000BB008091BC0083FDF8CF85EC8093BC002D
:1004C0008091EB018230E1F38091EA018F3F31F0BE
:1004D0008091EA01803211F08091EA011092A2012C
:1004E0001092A10110927E01CF9108952D91219338
:1004F0008F5FCBCF85EEE2CF089590E080E0089546
:100500008F929F92AF92BF920F931F93CF93DF93DF
:10051000CDB7DEB7A1970FB6F894DEBF0FBECDBF43
:1005200019A2423008F44AE08E010F5D1F4F842E5D
:10053000912CB12CA12CA50194010E946806E62FF4
:10054000B901CA01EA3044F5E05DD801EE938D01AE
:10055000232B242B252B79F790E080E0109769F06E
:10056000FD0101900020E9F73197AF014A1B5B0BB9
:10057000BD018DE192E00E94EB01A1960FB6F894C7
:10058000DEBF0FBECDBFDF91CF911F910F91BF9006
:10059000AF909F908F900895E95CD7CFFC010190B8
:1005A0000020E9F73197AF01481B590BBC018DE1E1
:1005B00092E00C94EB010F931F93CF938C01C62F05
:1005C0000E9418026C2F6460C8010E9418026C2FF0
:1005D0006B7FC8010E94180283EC90E00197F1F74D
:1005E000CF911F910F9108950F931F93CF93DF9396
:1005F0008C01D62FC42F607F642B0E94DB0280E128
:10060000D89FB00111246C2BC801DF91CF911F91AD
:100610000F910C94DB02CF93DF93CDB7DEB7289711
:100620000FB6F894DEBF0FBECDBF98E0E0E0F1E07A
:10063000DE01119601900D929A95E1F790912502B5
:10064000981708F48FEF90E0880F991F21E030E0B1
:100650002C0F3D1F820F931FFC016081606840E0FA
:100660008DE192E028960FB6F894DEBF0FBECDBFA5
:10067000DF91CF910C94F40240E061E08DE192E0D3
:100680000E94F4028BE39FE10197F1F7089541E0A6
:100690000E94F40281E090E008951F920F920FB63D
:1006A0000F9211242F933F934F935F936F937F93F8
:1006B0008F939F93AF93BF93EF93FF938091B90074
:1006C000887F803609F44AC0F0F5883209F4A7C063
:1006D00018F5803109F49BC0B8F4882309F4F9C0F7
:1006E000883009F494C0FF91EF91BF91AF919F9131
:1006F0008F917F916F915F914F913F912F910F90CB
:100700000FBE0F901F901895883109F488C0803271
:1007100051F78093EA0114C0803409F49DC040F47D
:100720008033B9F38833F9F68093EA0185ECB0C0E1
:10073000803509F485C0883509F496C0883499F667
:100740000E948C00D0CF883909F48CC038F58837E6
:1007500029F050F4883611F0803729F683E0809331
:10076000EB011092E90157C0883809F47BC0803949
:1007700019F0803809F0B7CF8091E901803208F094
:1007800071C0E091E90181E08E0F8093E9018091D1
:10079000BB00F0E0E753FE4F80833DC0803B39F063
:1007A000E0F4803A09F479C0883A09F09CCF84E0FB
:1007B0008093EB011092C6011092C501E091C30134
:1007C000F091C40109958091C50181110FC081E0AC
:1007D0008093C5011092A30109C0803C09F4A6CF03
:1007E000883C09F4A3CF883B09F07DCFE091C60196
:1007F00081E08E0F8093C601F0E0ED55FE4F8081C1
:100800008093BB009091C6018091C50129C0809161
:1008100010028093BB0085EC8093BC0064CF909164
:100820000F0280910E02981758F5E0910F0281E0B7
:100830008E0F80930F02F0E0E251FE4F8081E9CFEE
:10084000E0910F0281E08E0F80930F028091BB0038
:10085000F0E0E251FE4F808390910F0280910E02F2
:100860009817C8F285E8D8CFE0910F0281E08E0F8B
:1008700080930F028091BB00F0E0E251FE4F808335
:100880008091ED0181115CCF81E08093EC0184EADD
:100890008093BC001092EB0126CF85EC8093BC00C6
:1008A0001092EB018091E901803230F4E091E9018E
:1008B000F0E0E753FE4F10826091E90170E0E091B3
:1008C000C701F091C80189EC91E009951092E90106
:1008D0000ACF1092EA0134CF1F920F920FB60F92F7
:1008E00011242F933F938F939F93AF93BF93809146
:1008F000560190915701A0915801B0915901309142
:10090000550123E0230F2D3758F50196A11DB11D88
:10091000209355018093560190935701A09358015D
:10092000B093590180915A0190915B01A0915C01B3
:10093000B0915D010196A11DB11D80935A01909364
:100940005B01A0935C01B0935D01BF91AF919F915A
:100950008F913F912F910F900FBE0F901F90189580
:1009600026E8230F0296A11DB11DD2CFE1E1F2E0EE
:100970001382128288EE93E0A0E0B0E08483958336
:10098000A683B7838CE091E091838083EDE1F2E070
:10099000138212828EE191E09183808387E28483C7
:1009A00080E1818782E0828713860895789484B5F8
:1009B000826084BD84B5816084BD85B5826085BD5B
:1009C00085B5816085BD80916E00816080936E00E9
:1009D00010928100809181008260809381008091DB
:1009E000810081608093810080918000816080938C
:1009F00080008091B10084608093B1008091B0004C
:100A000081608093B00080917A00846080937A0046
:100A100080917A00826080937A0080917A00816070
:100A200080937A0080917A00806880937A00109297
:100A3000C1001092A00110929F011092A201109289
:100A4000A1011092EB0181E08093ED011092EC0185
:100A500082E10E946E0183E10E946E018091B900E3
:100A60008E7F8093B9008091B9008D7F8093B9000B
:100A700088E48093B80085E48093BC008DEB90E01F
:100A80009093C4018093C3018EEB90E09093C801D2
:100A90008093C7011092220280912702823018F0C1
:100AA00098E0909322028093250262E370E080E058
:100AB00090E00E94B901609128028DE192E00E94CD
:100AC000180268EE73E080E090E00E94B90160E3F4
:100AD0008DE192E00E94DB02CBE4D6E4CE010197E7
:100AE000F1F760E38DE192E00E94DB022197F1F7DC
:100AF00060E38DE192E00E94DB0283E592E00197E2
:100B0000F1F760E28DE192E00E94DB026091220247
:100B1000606240E08DE192E00E94F40284E0809304
:100B2000230240E06CE08DE192E00E94F4020E941A
:100B30003C0382E08093240240E066E08DE192E095
:100B40000E94F40240E062E08DE192E00E94F40233
:100B50008BE39FE10197F1F788E08093280260E042
:100B60008DE192E00E941802C3EAD0E0FE012491D8
:100B70000FE810E0F80184918823C9F090E0880F15
:100B8000991FFC01E859FF4FA591B491FC01E4586D
:100B9000FF4F459154913FB7F8949C91822F8095D7
:100BA00098239C93FA019081892380833FBF0E9400
:100BB0003C0380E00E940B0386E291E00E94CE029B
:100BC00081E00E940B0385E391E00E94CE0268E081
:100BD00077E080E090E00E94B90197EBE92E90E089
:100BE000F92E20E0C22E20E0D22EF7018491FE01E2
:100BF000A490F801B490BB2009F467C081110E9451
:100C00004501EB2DF0E0EE0FFF1FEE58FF4FA591D1
:100C1000B4918C91A82231E020E009F430E0832FD8
:100C2000922F909354018093530120915101309160
:100C3000520128173907D1F1892BC1F580914F0155
:100C40009091500101969093500180934F010E9422
:100C50003C0380E00E940B0382E491E00E94CE02FC
:100C600081E00E940B0362E370E080E090E00E946C
:100C7000B90180904F0190905001092C000CAA08F6
:100C8000BB084AE0C501B401B7FE0EC041E06DE209
:100C90008DE192E00E94F40266277727CB01681964
:100CA00079098A099B094AE00E94800280915301D8
:100CB000909154019093520180935101C114D10439
:100CC00009F493CF0E94000090CF90E080E0A9CF7C
:100CD000A1E21A2EAA1BBB1BFD010DC0AA1FBB1F40
:100CE000EE1FFF1FA217B307E407F50720F0A21BB2
:100CF000B30BE40BF50B661F771F881F991F1A941F
:100D000069F760957095809590959B01AC01BD0148
:100D1000CF010895EE0FFF1F0590F491E02D099487
:040D2000F894FFCF75
:100D24000000400014005400000000001601E90017
:100D34007D02BF00E200CF00C000000000004703B6
:100D4400EB017D027C024869742074686520627539
:100D540074746F6E00746F20696E6372656D656E76
:0E0D6400740068656C6C6F20776F726C6400B1
:00000001FF
