:100000000C945D000C9485000C9485000C94850084
:100010000C9485000C9485000C9485000C9485004C
:100020000C9485000C9485000C9485000C9485003C
:100030000C9485000C9485000C9485000C9485002C
:100040000C9424030C9485000C9494030C946E037C
:100050000C9485000C9485000C9485000C9485000C
:100060000C9485000C9485000000000024002700FB
:100070002A0000000000250028002B0004040404CE
:100080000404040402020202020203030303030342
:10009000010204081020408001020408102001021F
:1000A00004081020000000080002010000030407FB
:1000B00000000000000000007E0411241FBECFEFEE
:1000C000D8E0DEBFCDBF11E0A0E0B1E0E4EBF9E0A5
:1000D00002C005900D92A631B107D9F721E0A6E143
:1000E000B1E001C01D92AC3BB207E1F710E0CDE5F5
:1000F000D0E004C02197FE010E94CD04CC35D10789
:10010000C9F70E94C6030C94D8040C94000090E038
:10011000FC01EC55FF4F2491FC01E057FF4F349157
:10012000FC01E458FF4FE491EE2309F43CC0222384
:1001300039F1233091F038F42130A9F0223001F563
:1001400084B58F7D12C0273091F02830A1F0243083
:10015000B9F4809180008F7D03C0809180008F77FB
:10016000809380000DC084B58F7784BD09C08091D5
:10017000B0008F7703C08091B0008F7D8093B00076
:10018000F0E0EE0FFF1FEE58FF4FA591B4919FB71F
:10019000F894611104C08C913095382302C0EC9121
:1001A0003E2B3C939FBF0895482F50E0FA01E05743
:1001B000FF4F9491FA01E458FF4F2491222399F0C4
:1001C00030E0220F331FF901E859FF4FA591B49198
:1001D000F901EE58FF4F259134912FB7F894EC9127
:1001E000E92BEC932FBF6115710511F460E004C099
:1001F0006F3F710519F461E00C948700FA01EC552A
:10020000FF4FE491E330F9F048F4E130B9F0E23027
:10021000A1F584B5806284BD68BD0895E730E9F03A
:10022000E83019F1E43049F58091800080628093D4
:10023000800070938B0060938A00089584B5806875
:1002400084BD67BD089580918000806880938000A0
:10025000709389006093880008958091B000806851
:100260008093B0006093B30008958091B0008062E5
:100270008093B0006093B4000895603871050CF06D
:10028000BACFB4CF3FB7F89480911B0190911C0175
:10029000A0911D01B0911E0126B5A89B05C02F3F5E
:1002A00019F00196A11DB11D3FBFBA2FA92F982F9C
:1002B0008827820F911DA11DB11DBC01CD0142E017
:1002C000660F771F881F991F4A95D1F708958F925F
:1002D0009F92AF92BF92CF92DF92EF92FF920E94D5
:1002E00042014B015C018EE1C82ED12CE12CF12C96
:1002F0000E944201DC01CB0188199909AA09BB09B6
:10030000883E9340A105B10598F321E0C21AD108B7
:10031000E108F10888EE880E83E0981EA11CB11C4C
:10032000C114D104E104F10419F7FF90EF90DF90BC
:10033000CF90BF90AF909F908F900895CF92DF9213
:10034000EF92FF920F931F93CF93DF936C017A018B
:100350008B01C0E0D0E0CE15DF0581F0D8016D91B2
:100360008D01D601ED91FC910190F081E02DC60147
:100370000995892B11F02196EECF7E01C701DF91FF
:10038000CF911F910F91FF90EF90DF90CF90089544
:10039000089580E090E00895FC01538D448D252F51
:1003A00030E0842F90E0821B930B541710F0CF960F
:1003B000089501970895FC01918D828D981761F041
:1003C000828DDF01A80FB11D5D968C91928D9F5F8C
:1003D0009F73928F90E008958FEF9FEF0895FC0137
:1003E000918D828D981731F0828DE80FF11D858DEA
:1003F00090E008958FEF9FEF0895FC01918D228D7D
:10040000892F90E0805C9F4F821B91098F73992701
:1004100008958FE191E00E94FD0121E0892B09F40C
:1004200020E0822F0895FC01848DDF01A80FB11D0B
:10043000A35ABF4F2C91848D90E001968F7399271A
:10044000848FA689B7892C93A089B1898C918370F8
:1004500080648C93938D848D981306C00288F389F1
:10046000E02D80818F7D80830895EF92FF920F931E
:100470001F93CF93DF93EC0181E0888F9B8D8C8D50
:10048000981305C0E889F989808185FD26C0F62E7C
:100490000B8D10E00F5F1F4F0F731127E02E8C8D17
:1004A000E8120CC00FB607FCFACFE889F989808101
:1004B00085FFF5CFCE010E941302F1CF8B8DFE0197
:1004C000E80FF11DE35AFF4FF0829FB7F8940B8FAE
:1004D000EA89FB89808180620AC09FB7F894EE891F
:1004E000FF896083E889F9898081837080648083D3
:1004F0009FBF81E090E0DF91CF911F910F91FF901E
:10050000EF900895CF93DF93EC01888D8823C9F095
:10051000EA89FB89808185FD05C0A889B9898C910C
:1005200086FD0FC00FB607FCF5CF808185FFF2CFA7
:10053000A889B9898C9185FFEDCFCE010E94130265
:10054000E7CFDF91CF91089580E090E0892B29F0EB
:100550000E94090281110C9400000895009769F02F
:10056000FC0101900020E9F73197AF01481B590BBE
:10057000BC018FE191E00C949E0180E090E0089531
:100580008F929F92AF92BF920F931F93CF93DF935F
:10059000CDB7DEB7A1970FB6F894DEBF0FBECDBFC3
:1005A00019A2423008F44AE08E010F5D1F4F842EDD
:1005B000912CA12CB12CA50194010E94AB04E62F33
:1005C000B901CA0101501109EA3014F4E05D01C01B
:1005D000E95CD801EC93232B242B252B61F7C80170
:1005E0000E94AE02A1960FB6F894DEBF0FBECDBF3B
:1005F000DF91CF911F910F91BF90AF909F908F90FF
:100600000895CF92DF92EF92FF92CF93DF936B0129
:100610007C016DE28FE191E00E943502EC016627DA
:100620007727CB016C197D098E099F094AE00E944A
:10063000C0028C0F9D1FDF91CF91FF90EF90DF9054
:10064000CF9008950E94D3041F920F920FB60F927D
:1006500011242F933F938F939F93AF93BF938091D8
:10066000170190911801A0911901B0911A013091D0
:10067000160123E0230F2D3720F40196A11DB11D93
:1006800005C026E8230F0296A11DB11D2093160177
:100690008093170190931801A0931901B0931A0148
:1006A00080911B0190911C01A0911D01B0911E0130
:1006B0000196A11DB11D80931B0190931C01A09375
:1006C0001D01B0931E01BF91AF919F918F913F91FA
:1006D0002F910F900FBE0F901F9018951F920F92A1
:1006E0000FB60F9211242F933F934F935F936F9305
:1006F0007F938F939F93AF93BF93EF93FF938FE17C
:1007000091E00E941302FF91EF91BF91AF919F91F1
:100710008F917F916F915F914F913F912F910F90AA
:100720000FBE0F901F9018951F920F920FB60F9249
:1007300011242F938F939F93EF93FF93E0912F01B9
:10074000F09130018081E0913501F091360182FD18
:1007500012C09081809138018F5F8F732091390191
:10076000821751F0E0913801F0E0E15EFE4F958F85
:100770008093380101C08081FF91EF919F918F910B
:100780002F910F900FBE0F901F901895789484B5FD
:10079000826084BD84B5816084BD85B5826085BD7D
:1007A00085B5816085BD80916E00816080936E000B
:1007B00010928100809181008260809381008091FD
:1007C00081008160809381008091800081608093AE
:1007D00080008091B10084608093B1008091B0006E
:1007E00081608093B00080917A00846080937A0069
:1007F00080917A00826080937A0080917A00816093
:1008000080937A0080917A00806880937A001092B9
:10081000C100E0912F01F091300182E08083E091EE
:100820002B01F0912C011082E0912D01F0912E010D
:100830008FEC808310923701E0913301F091340105
:1008400086E08083E0913101F09132018081806106
:100850008083E0913101F091320180818860808352
:10086000E0913101F0913201808180688083E091D4
:100870003101F091320180818F7D8083C12CD12C98
:100880007601B60189E00E94D4000E9467014AE027
:10089000C701B6010E94C00282E191E00E94AE024F
:1008A00085E0C80ED11CE11CF11C84E0C81681E073
:1008B000D806E104F10429F7C12CD12C7601CA94A1
:1008C000B60189E00E94D4000E9467014AE0C70196
:1008D000B6010E94C00282E191E00E94AE0285E072
:1008E000C81AD108E108F1088BEFC8168FEFD806B7
:1008F000E806F80629F70E94A402C0CFEFE1F1E074
:100900001382128288EE93E0A0E0B0E084839583A6
:10091000A683B78384E091E09183808385EC90E0A7
:100920009587848784EC90E09787868780EC90E0B9
:10093000918B808B81EC90E0938B828B82EC90E0AA
:10094000958B848B86EC90E0978B868B118E128E24
:10095000138E148E0895A1E21A2EAA1BBB1BFD0153
:100960000DC0AA1FBB1FEE1FFF1FA217B307E4078E
:10097000F50720F0A21BB30BE40BF50B661F771FE6
:10098000881F991F1A9469F76095709580959095C6
:100990009B01AC01BD01CF010895EE0FFF1F059033
:1009A000F491E02D099481E090E0F8940C94D8043F
:0409B000F894FFCFE9
:1009B4000000000035029E01CC018202FD01DB0132
:0609C400EF010D0A000026
:00000001FF
